:1000000012C02CC02BC02AC029C028C027C026C0BF
:1000100025C0F8C023C022C021C020C01FC01EC000
:100020001DC01CC01BC011241FBECFE5D4E0DEBF25
:10003000CDBF10E0A0E6B0E0E2E4FAE002C0059037
:100040000D92A436B107D9F710E0A4E6B0E001C0E4
:100050001D92A939B107E1F76BD1F1C4D1CF89B7AE
:10006000816089BF83B7856083BF87B317BA87B3C1
:10007000807887BB87B3807C87BB7894B99A8FB52B
:1000800081688FBD8EB58C608EBD1BBC1ABCE1D261
:10009000A89880E090E063D480936A0081E090E0CB
:1000A0005ED480936B0082E090E059D480936C0022
:1000B00083E090E05BD4909361008093600088E2DD
:1000C00080936A0084E180936B0080E580936C00EC
:1000D0000895809166008230D1F0833028F488231F
:1000E000A1F18130B9F505C08330D9F0843091F5A4
:1000F00022C080916700882341F180916000909137
:1001000061000196909361008093600023C080910C
:1001100067008823D1F080916A008F5F80936A0026
:1001200019C080916700882381F080916B008F5FF8
:1001300080936B000FC080916700882331F080911D
:100140006C008F5F80936C0005C0809166008F5FAC
:100150008093660080916600853030F08091670062
:10016000882311F410926600089580916600823011
:10017000D1F0833028F48823A1F18130B9F505C08E
:100180008330D9F0843091F522C0809167008823B4
:1001900041F180916000909161000197909361001E
:1001A0008093600023C0809167008823D1F0809104
:1001B0006A00815080936A0019C08091670088238B
:1001C00081F080916B00815080936B000FC0809113
:1001D0006700882331F080916C00815080936C001F
:1001E00005C0809166008150809366008091660012
:1001F000853038F080916700882319F484E080937B
:10020000660008951F920F920FB60F9211241F934C
:100210002F933F934F935F936F937F938F939F930E
:10022000AF93BF93EF93FF9380916400823008F403
:100230005EC086B3829586958770C1D38093830014
:1002400080918300873009F44EC0809183008093B1
:10025000820080918200863049F416B3129516957B
:1002600017701730D1F735DF10938200809182002C
:10027000833049F416B31295169517701730D1F7DD
:1002800074DF1093820080918200853071F586B30F
:100290008295869587708730D1F780916600882394
:1002A00009F1809167008823B1F080E090E06091CF
:1002B0006A004DD381E090E060916B0048D382E00A
:1002C00090E060916C0043D3609160007091610098
:1002D00083E090E065D39091670081E0911180E028
:1002E0008093670087E08093820010926400809181
:1002F00065008F5F80936500809164008F5F8093BD
:100300006400809168008F5F80936800FF91EF9197
:10031000BF91AF919F918F917F916F915F914F911D
:100320003F912F911F910F900FBE0F901F90189526
:100330002F923F924F925F926F927F928F929F92F5
:10034000AF92BF92CF92DF92EF92FF920F931F93E3
:10035000CF93DF9384DE93E7C92E85E6E82E04E78A
:10036000F02E00E21BE6B12EB0E7AB2EA4E6DA2EAB
:100370001AE0CAE0D0E0F0E18F2E912CE1E76E2E7A
:10038000E2E07E2E78EE472E73E0572E64E6262EAE
:10039000312C809165008A30C8F032D2BC01909334
:1003A000810080938000009719F41092690007C0C3
:1003B000809160009091610045D2809369008091A6
:1003C000690090E09BBD8ABD109265008091680035
:1003D0008A3008F423C180916600823009F4A9C0F4
:1003E000833030F4882359F0813009F000C158C0BF
:1003F000833009F4B1C0843009F0F9C0D5C0F0925F
:1004000084008DE3809385002091800030918100ED
:10041000C90154E0959587955A95E1F7BE01E8D258
:10042000605D60938600805D809387009CE290937E
:100430008800C901B401DCD2869D9001879D300DF2
:10044000969D300D1124C901B201D2D2605D609336
:100450008900C901B101CCD2CB01BE01C9D2805DF6
:1004600080938A0010928B0088E4809371009DE352
:100470009093720020916900822F6D2DADD2805D26
:1004800080937300822F612FA7D2292FA5D2905D70
:1004900090937400205D2093750010927600A7C0A1
:1004A000C0928400E0928500F0928600009387005D
:1004B000F0928800E09289008DE680938A00A092F5
:1004C0008B009AE390938C0010928D000093710042
:1004D0002091600030916100C90144E095958795B5
:1004E0004A95E1F7BE0184D2605D60937200805D41
:1004F000809373008CE280937400C901B40178D2B8
:10050000869D9001879D300D969D300D1124C90167
:10051000B2016ED2605D60937500C901B10168D20D
:10052000CB01BE0165D2805D80937600109277008A
:100530005EC0C0928400E0928500F0928600009335
:100540008700B0928800A092890010928A000093E0
:10055000710020916A003AC0C0928400E092850048
:10056000F092860000938700B092880099E69093FD
:10057000890010928A000093710020916B00822FF5
:100580006D2D2AD2805D809372008EE2809373007D
:10059000822F612F21D2292F1FD2905D909374005A
:1005A000205D2093750023C0C0928400E0928500F6
:1005B000F092860000938700B0928800D092890064
:1005C00010928A000093710020916C00822F6D2D93
:1005D00003D2805D80937200822F612FFDD1292F7D
:1005E000FBD1905D90937300205D20937400109276
:1005F000680080916700882339F080916600882325
:1006000019F09EE3909371006FD084E890E071D070
:1006100080E061E081D081E790E06BD08FEC97E0E3
:100620000197F1F700C00000B4CE92B39F7092BB67
:1006300092B38295807F892B82BB08959298F5DFD3
:10064000939A93988FE99FE00197F1F700C000001B
:10065000089581B38C6F81BB8FE39CE90197F1F71B
:1006600000C0000083E0EADF9AE69A95F1F700C047
:1006700083E0E4DF8AE68A95F1F700C083E0DEDFFD
:100680009AE69A95F1F700C082E0D8DF8AE68A956B
:10069000F1F700C082E0D2DF88E0D0DF80E0CEDF7B
:1006A00088E0CCDF80E0CADF81E0C8DF80E0C6DF21
:1006B00086E0C4DF80E0C2DF8CE0C0DF08951F93D6
:1006C000182F929A82958F70B0DF939A9398812F0A
:1006D0008F70ABDF939A93988FE99FE00197F1F7C2
:1006E00000C000001F91089580E0A8DF81E0A6DF30
:1006F0000895EF92FF92CF93DF93E82EE7017E01FA
:10070000F92EE70101C0DBDF89918823E1F7DF9152
:10071000CF91FF90EF9008951F939298182F105843
:100720006295660F660F607C160F812F82958F7021
:1007300085DF812F83DF1F910895F894A09A8FEBB6
:1007400093E00197F1F700C00000A09895E09A951A
:10075000F1F7000084E6989905C0989BFECF789445
:1007600081E0089592E09A95F1F700C0815099F7E1
:1007700078940895F89498E0A09A80FF08C020E14A
:100780002A95F1F7A0982AEA2A95F1F707C020EAFE
:100790002A95F1F7A0982AE12A95F1F700C0915027
:1007A00011F08695E9CF78940895F894A09A85E0A1
:1007B0008A95F1F70000A0989DE09A95F1F7000066
:1007C00083B395ED9A95F1F70000789481700895C0
:1007D0000F931F93CF93DF93F89408E010E0C0E0ED
:1007E000D0E0D695C795E1DF8111C0680150104077
:1007F000C1F778948C2FDF91CF911F910F910895BD
:100800001F939BDF8823C9F08CECB4DF84E4B2DF54
:100810008FE39CE90197F1F700C000008EDF8CECBC
:10082000A9DF8EEBA7DFD4DF182FD2DF582F40E0EF
:10083000212F30E0242B352B02C020E030E0C9010D
:100840001F910895FB01861B970B40916A0050E0B1
:10085000849F9001859F300D949F300D112430931B
:100860009400209393004EE42132340734F020E2C8
:100870003EE43093940020939300209193003091B4
:10088000940041EB203E340734F420EE31EB3093FA
:1008900094002093930020916F0030917000280FF6
:1008A000391F83E1293838072CF44CEE28373407F8
:1008B00024F005C028E833E102C028E73CEEC90176
:1008C00064E670E095D080916B0090E0689FA00195
:1008D000699F500D789F500D1124509398004093BC
:1008E00097003093700020936F0080916D0090917D
:1008F0006E00BF01681B790B80916C0090E0689FCF
:100900009001699F300D789F300D1124309396002F
:1009100020939500F0936E00E0936D00809193001A
:1009200090919400821B930B840F951F60E170E0FF
:100930005FD06F3F710509F01CF477FD04C005C05E
:100940006FEF70E002C060E070E0862F0895E199DB
:10095000FECF9FBB8EBB6DBBE29AE19A0895E199F1
:10096000FECF9FBB8EBBE09A8DB30895EF92FF92AE
:100970000F931F93CF93DF938C01F1DF982F80E0CB
:10098000EC01C8010196EBDF282F30E02C2B3D2B2A
:10099000C901DF91CF911F910F91FF90EF900895C2
:1009A0001F93CF93DF93EC01162F672FD0DFCE017B
:1009B0000196612FCCDFDF91CF911F910895873091
:1009C00019F480936200089590916200891719F0DC
:1009D0008093620087E00895991B79E004C0991F15
:1009E000961708F0961B881F7A95C9F78095089589
:1009F00097FB092E07260AD077FD04D00CD006D02D
:100A000000201AF4709561957F4F0895F6F7909540
:100A100081959F4F0895AA1BBB1B51E107C0AA1FD8
:100A2000BB1FA617B70710F0A61BB70B881F991F8F
:100A30005A95A9F780959095BC01CD010895F89439
:020A4000FFCFE6
:040A4200580207004F
:00000001FF
